:100000000C9463000C948B000C948B000C948B006C
:100010000C948B000C948B000C948B000C948B0034
:100020000C948B000C948B000C948B000C948B0024
:100030000C948B000C948B000C948B000C948B0014
:100040000C94BE160C948B000C942E170C9408176D
:100050000C948B000C948B000C948B000C948B00F4
:100060000C948B000C948B000000000023002600F1
:10007000290000000008000201000003040700003E
:1000800000000000000000000000250028002B00F8
:1000900000000000240027002A00040404040404D3
:1000A0000404020202020202030303030303010227
:1000B00004081020408001020408102001020408F6
:1000C000102060176B1F11241FBECFEFD8E0DEBFDA
:1000D000CDBF12E0A0E0B1E0EAEBF3E402C005908E
:1000E0000D92AE35B107D9F724E0AEE5B2E001C01C
:1000F0001D92A331B207E1F710E0C2E6D0E004C0E0
:100100002197FE010E948A20C136D107C9F70E94BB
:1001100023180C94D0210C9400008CBD9DBD089533
:1001200020E3FC0120833296862F82958F706F70BA
:100130006A3030F4605D6293682F8111F5CF0895C5
:10014000695CF9CF90E0FC01E255FF4F249186569F
:100150009F4FFC018491882399F090E0880F991FAC
:10016000FC01E057FF4FA591B491FC01EA57FF4F06
:10017000859194918FB7F894EC91E22BEC938FBF1B
:1001800008958091D5039091D603009711F480E0F3
:100190002FC0DC01ED91FC910688F789E02D0995CF
:1001A0002091F8033091F90381111FC0232B79F7B7
:1001B0008DEF9FEF9093F9038093F8038091D5031F
:1001C0009091D603DC01ED91FC910680F781E02D42
:1001D00009958091D5039091D603DC01ED91FC91B6
:1001E0000488F589E02D0995D2CF81E0232B79F69B
:1001F0000895FC01818D928D08950895833081F0DA
:1002000028F4813099F08230A9F008958730A9F060
:100210008830C9F08430B1F4809180008F7D03C0B4
:10022000809180008F7780938000089584B58F77C8
:1002300084BD089584B58F7DFBCF8091B0008F770A
:100240008093B00008958091B0008F7DF9CFCF9357
:10025000DF93E4E7F0E08491E0EBF0E0D491ECE9A7
:10026000F0E0C491CC23A1F081110E94FE00EC2F9C
:10027000F0E0EE0FFF1FE859FF4FA591B491EC910C
:10028000ED2381E090E009F480E0DF91CF910895C3
:1002900080E090E0FACF1F93CF93DF93282F30E0D8
:1002A000F901EE58FF4F8491F901E255FF4FD491C7
:1002B000F901E656FF4FC491CC23A9F0162F811106
:1002C0000E94FE00EC2FF0E0EE0FFF1FEA57FF4FF9
:1002D000A591B4918FB7F894EC91111108C0D09505
:1002E000DE23DC938FBFDF91CF911F910895DE2B2A
:1002F000F8CF3FB7F8948091D7029091D802A0919F
:10030000D902B091DA0226B5A89B05C02F3F19F09B
:100310000196A11DB11D3FBFBA2FA92F982F882785
:10032000BC01CD01620F711D811D911D42E0660F60
:10033000771F881F991F4A95D1F708958F929F9232
:10034000AF92BF92CF92DF92EF92FF924B015C018E
:100350000E9479016B017C010E9479016C197D0971
:100360008E099F09683E734081059105A8F321E03D
:10037000821A9108A108B10888EEC80E83E0D81E41
:10038000E11CF11C81149104A104B10429F7FF9030
:10039000EF90DF90CF90BF90AF909F908F90089597
:1003A0002FB7F8946091D3027091D4028091D50256
:1003B0009091D6022FBF08958F929F92AF92BF92D5
:1003C000CF92DF92EF92FF92CF93DF93EC010E94E6
:1003D000D0014B015C018091D5039091D603DC01E3
:1003E000ED91FC910084F185E02D0995892BB9F4FC
:1003F0000E94D0016B017C01C818D908EA08FB08EB
:100400002091DD033091DE03A8EEB3E00E9474205A
:10041000C616D706E806F906F0F280E00DC0809116
:10042000D5039091D603DC01ED91FC910284F38514
:10043000E02D0995888381E0DF91CF91FF90EF90C7
:10044000DF90CF90BF90AF909F908F900895AF9224
:10045000BF92CF92DF92EF92FF920F931F93CF93B1
:10046000DF936C017B018B01040F151FEB015E0113
:10047000AE18BF08C017D10759F06991D601ED91A8
:10048000FC910190F081E02DC6010995892B79F747
:10049000C501DF91CF911F910F91FF90EF90DF90F9
:1004A000CF90BF90AF900895FC01538D448D252FC0
:1004B00030E0842F90E0821B930B541710F0CF96FE
:1004C000089501970895FC01918D828D981761F030
:1004D000A28DAE0FBF2FB11D5D968C91928D9F5F47
:1004E0009F73928F90E008958FEF9FEF0895FC0126
:1004F000918D828D981731F0828DE80FF11D858DD9
:1005000090E008958FEF9FEF0895FC01918D228D6B
:10051000892F90E0805C9F4F821B91098F739927F0
:10052000089588EF92E00E94850221E0892B09F46A
:1005300020E0822F089580E090E0892B29F00E942E
:10054000910281110C9400000895FC01A48DA80F64
:10055000B92FB11DA35ABF4F2C91848D90E0019605
:100560008F739927848FA689B7892C93A089B18925
:100570008C91837080648C93938D848D981306C0C6
:100580000288F389E02D80818F7D80830895EF922A
:10059000FF920F931F93CF93DF93EC0181E0888F3D
:1005A0009B8D8C8D98131AC0E889F989808185FF0D
:1005B00015C09FB7F894EE89FF896083E889F989AF
:1005C00080818370806480839FBF81E090E0DF91B1
:1005D000CF911F910F91FF90EF900895F62E0B8D04
:1005E00010E00F5F1F4F0F731127E02E8C8D8E11BF
:1005F0000CC00FB607FCFACFE889F989808185FF26
:10060000F5CFCE010E94A502F1CFEB8DEC0FFD2FAF
:10061000F11DE35AFF4FF0829FB7F8940B8FEA89E0
:10062000FB8980818062CFCFCF93DF93EC01888DEF
:100630008823B9F0AA89BB89E889F9898C9185FD5D
:1006400003C0808186FD0DC00FB607FCF7CF8C91EB
:1006500085FFF2CF808185FFEDCFCE010E94A502FC
:10066000E9CFDF91CF910895EF92FF920F931F93FF
:10067000CF93DF93EC018B017A010E94D001688B4C
:10068000798B8A8B9B8B8C819D81DC01ED91FC9118
:100690000280F381E02DA701B801DF91CF911F9176
:1006A0000F91FF90EF9009941F93CF93DF93EC018C
:1006B000162F0E94D001688B798B8A8B9B8B8C8143
:1006C0009D81DC01ED91FC910190F081E02D612F85
:1006D000DF91CF911F9109940895FC0120812EBDD7
:1006E0009B012150310941F051810DB407FEFDCF2E
:1006F0004EB55EBD4193F5CF61507109860F971FCE
:100700000DB407FEFDCF2EB5FC0120830895E091C6
:100710005F02F0916002808190915E02892B80835C
:100720000895E0915F02F0916002908180915E02F5
:1007300080958923808308958EBD00000DB407FE47
:10074000FDCF8EB50895AF92BF92CF92DF92EF9218
:10075000FF920F931F93CF93DF93CDB7DEB7289708
:100760000FB6F894DEBF0FBECDBF8C017B016A01CE
:100770008091F7028333E1F45801A40EB51EA01650
:10078000B10609F46FC00E94910380EF0E949C03A0
:10079000812F0E949C03802F0E949C030F5F1F4F9C
:1007A000F70181917F010E949C030E948703E7CF9C
:1007B0005B01A40EB51E8433C1F40E94910319831A
:1007C0000A838D2D80688B83CC8264E070E0CE013B
:1007D00001960E946D03AE14BF0409F441C0F701F5
:1007E00081917F010E949C03F6CF0E9491030F3FED
:1007F000110509F028F419820A8384E08B830CC068
:1008000017FD17C019820A8333E0169507953A95AC
:10081000E1F7007E0C600B8386E0C816D104A0F5DA
:10082000F701DE011496EA15FB0599F081918D938D
:10083000FACFC80126E0969587952A95E1F7807E44
:1008400019830A830115104C10F48461D7CF8C6191
:10085000D5CFB6016D5F7F4FCE0101960E946D032B
:100860000E948703C60128960FB6F894DEBF0FBE1C
:10087000CDBFDF91CF911F910F91FF90EF90DF904F
:10088000CF90BF90AF90089563E070E0CE010196E5
:100890000E946D03F70181917F010E949C03AE14B9
:1008A000BF04C1F7DDCFCF93DF931F92CDB7DEB783
:1008B000898341E050E0BE016F5F7F4F90E080E0B0
:1008C0000E94A3030F90DF91CF91089590E02091B3
:1008D000F702233339F40C96982F990F990F990F3B
:1008E00080E008954896F8CFDA01E0916202F0E0E6
:1008F000FE2FEE27E60FF71F90E0982F8827A9011B
:10090000BD018E0F9F1F0C94A303CF93DF9300D0E4
:10091000CDB7DEB779836A8322E030E0AE014F5F66
:100920005F4F60E170E00E9474040F900F90DF91C0
:10093000CF910895CF93DF9300D0CDB7DEB7798301
:100940006A8322E030E0AE014F5F5F4F64E070E009
:100950000E9474040F900F90DF91CF910895CF9370
:10096000DF931F92CDB7DEB72091620230E0322FC5
:100970002227260F371F90E0982F8827498341E0D0
:1009800050E0BE016F5F7F4F820F931F0E94A30351
:100990000F90DF91CF910895CF93DF931F92CDB742
:1009A000DEB76983DC01ED91FC910280F381E02DDB
:1009B00041E050E0BE016F5F7F4F09950F90DF91DE
:1009C000CF910895FC019485FB018485981303C0A1
:1009D00081E0943008F080E00895CF93DF931F9278
:1009E000CDB7DEB76983DC01ED91FC910280F38124
:1009F000E02D41E050E0BE016F5F7F4F09950F9001
:100A0000DF91CF91089544E050E0BC018FE090E089
:100A10000C94A3030895FF920F931F93CF93DF933A
:100A2000EB01FC01178A168A2A81211109C02B814A
:100A3000211106C02C81211103C02D81222301F137
:100A400041155105E9F08A01FC01F08C80E591E047
:100A50000E948D00AE014E5F5F4F24E030E06CE0FD
:100A600070E08F2D0E947404B8018F2D0E948504C0
:100A700081E090E0DF91CF911F910F91FF90089559
:100A800080E0F7CFFC01848595850895FC01848979
:100A90009589089526EB31E0FC0131832083FB0129
:100AA0004089518962897389FC014283538364833D
:100AB00075830895DC01ED91FC91048CF58DE02D9A
:100AC000099490E080E00895FC0176876587089599
:100AD000DC01ED91FC9102A0F3A1E02D099591E0DC
:100AE00089270895862F089581E08627089521E0BB
:100AF000FC018485843008F020E0822F0895089559
:100B0000AF92BF92CF92DF92EF92FF920F931F931B
:100B1000CF93DF9300D000D0CDB7DEB78C016B014F
:100B20007A018091F7028333E9F45B016801C40E16
:100B3000D51EC016D106A9F10E9491038FE00E9434
:100B40009C03812F0E949C03802F0E949C030F5FB7
:100B50001F4F80E00E949C03F50181935F010E947A
:100B60008703E7CF843369F50E94910319830A83D1
:100B70008F2D8F778B83EC8264E070E0CE0101963D
:100B80000E946D03A70170E060E0C6010E94C221CF
:100B9000E114F10421F0B701C6010E946D030E9427
:100BA0008703C7010F900F900F900F90DF91CF91A7
:100BB0001F910F91FF90EF90DF90CF90BF90AF907B
:100BC00008950E9491030F3F110509F030F4198236
:100BD0000A831B8263E070E0D1CF17FD0BC019823E
:100BE0000A8333E0169507953A95E1F7007E086091
:100BF0000B83F0CFC80126E0969587952A95E1F7FB
:100C0000807E19830A830115104C18F480618B8350
:100C1000E1CF8861FCCFCF93DF931F92CDB7DEB7D2
:100C20002091620230E0322F2227260F371F90E0FA
:100C3000982F882741E050E0BE016F5F7F4F820F01
:100C4000931F0E94800589810F90DF91CF910895B5
:100C5000CF93C82F462F61E070E00E94AF0461E09F
:100C600070E08C2F0E940B068111F9CFCF9108956F
:100C7000CF93C82F80E591E00E948D0068E070E07E
:100C80008C2FCF910C942806CF93C82F80E591E04C
:100C90000E948D0060E170E08C2FCF910C942806AB
:100CA000CF93DF93EC01888D843020F40E944406BA
:100CB00084E0888FDF91CF910895CF93C82F80E58E
:100CC00091E00E948D0063E070E08C2FCF910C9436
:100CD0000B06CF93DF93EC018C858430D0F40E9417
:100CE0005D06843189F0882379F0883169F021E04C
:100CF0008C3159F4E881F9810084F185E02DCE0131
:100D0000099521E0892B09F420E0822FDF91CF9112
:100D1000089580E0FBCFCF92DF92EF92FF92CF93C6
:100D2000DF93EC018C85843068F40E9438060E94C1
:100D3000D0016B017C018C850E945D06811109C088
:100D400084E08C87DF91CF91FF90EF90DF90CF9080
:100D5000089561E070E080E090E00E949E010E94B2
:100D6000D001AB01BC014C195D096E097F098D856D
:100D70009E85B0E0A0E0481759076A077B07D8F2C4
:100D80008C850E944406DCCFCF93FC01C08D80E5AA
:100D900091E00E948D0060E270E08C2F0E94280696
:100DA00062E070E08C2F0E940B0684FD16C062E0AA
:100DB00070E08C2F0E940B0683FF0AC048E162E0BE
:100DC00070E08C2F0E94AF0480E090E0CF910895F6
:100DD00080E591E00E948D00E3CF40E162E070E0A9
:100DE0008C2F0E94AF0481E0F0CFCF93DF931F924E
:100DF000CDB7DEB741E050E0BE016F5F7F4F90E0BE
:100E000080E00E94800589810F90DF91CF91089545
:100E1000CF93DF93C4E1D0E00E94F506882361F010
:100E200061E070E080E090E00E949E012197A1F7D0
:100E300080E0DF91CF91089581E0FBCF1F93CF93A6
:100E4000DF931F92CDB7DEB7182F80E591E00E94A7
:100E50008D00812F0E94660427E0129FF00111246B
:100E6000E552FD4F22813381377041E050E0BE01F1
:100E70006F5F7F4F820F931F0E94800589810F90C3
:100E8000DF91CF911F910895FC01808D843040F453
:100E9000218D328D232B21F00E941E0790E00895B2
:100EA0008FEF9FEF0895CF93DF93FC0124852430CB
:100EB00028F08FEF9FEFDF91CF910895EC01019023
:100EC000F081E02D0084F185E02D0995892B89F3CF
:100ED0008C850E941E0790E0EECFDA01E09162025D
:100EE000F0E0FE2FEE27E60FF71F90E0982F8827FF
:100EF000A901BD018E0F9F1F0C9480058F929F92B8
:100F0000AF92BF92CF92DF92EF92FF921F93CF9357
:100F1000DF93CDB7DEB72C970FB6F894DEBF0FBEC8
:100F2000CDBF2091F70214E0222339F16B017C013F
:100F300080E591E00E948D005E0127E0A20EB11CC9
:100F4000450110E063E070E0812F0E940B06F40180
:100F500081934F01882349F11F5F143099F710E006
:100F6000F50181915F018D31D9F08831C9F08A5145
:100F70008230B0F01F5F143099F7812F2C960FB696
:100F8000F894DEBF0FBECDBFDF91CF911F91FF90D0
:100F9000EF90DF90CF90BF90AF909F908F9008958B
:100FA00060E170E0812F0E942806A12EB12C83EE13
:100FB00093E00197F1F742E870E060E0812F0E9432
:100FC000AF044FEF62E070E0812F0E94AF04B601E2
:100FD000C114D10491F4809106019091070101960A
:100FE0008115F0EC9F0708F45CC090930701809393
:100FF00006016091060170910701812F0E949A04F9
:1010000086E0E2E1F1E0DE01119601900D928A9511
:10101000E1F7F70183818F778C8384818D838581CC
:101020008E83A7014E5F5F4F24E030E06CE070E0FC
:10103000812F0E947404B601812F0E94850426E04E
:1010400030E0AE014F5F5F4F66E070E0812F0E949D
:10105000740461E070E0812F0E94280627E02A9D39
:10106000C0012B9D900D11249C0125523D4F79010B
:10107000F9011182108222E030E0AE01455F5F4F3E
:1010800068E270E0812F0E946D078B859C85982710
:1010900089279827F7019383828316821582148209
:1010A0006CCF80E090ECA1CFCF92DF92EF92FF92D5
:1010B0000F931F93CF93DF9300D000D000D0CDB714
:1010C000DEB78C016B017A01FC01808D843010F455
:1010D0000E94440686EB91E09A838983F60182811F
:1010E0009381A481B5818B839C83AD83BE83B7013B
:1010F000CE0101960E947E07F801808F8430A0F413
:10110000F586E486128E118E81E026960FB6F8944D
:10111000DEBF0FBECDBFDF91CF911F910F91FF902A
:10112000EF90DF90CF90089580E0EFCFAF92BF9225
:10113000CF92DF92EF92FF920F931F93CF93DF93A3
:1011400000D000D000D0CDB7DEB7082F6B0180E50E
:1011500091E00E948D009E012F5F3F4F7901590160
:1011600010E063E070E0812F0E940B06F50181938F
:101170005F01882341F11F5F143099F710E0F701F8
:1011800081917F018D31D1F08831C1F08A51823057
:10119000A8F01F5F143099F7812F26960FB6F894A8
:1011A000DEBF0FBECDBFDF91CF911F910F91FF909A
:1011B000EF90DF90CF90BF90AF90089560E170E026
:1011C000812F0E942806E12EF12C83EE93E00197F7
:1011D000F1F7402F70E060E0812F0E94AF044FEFE5
:1011E00062E070E0812F0E94AF04B601CD2889F43F
:1011F000809106019091070101968115F0EC9F07FF
:1012000098F1909307018093060160910601709117
:101210000701812F0E949A0461E070E0812F0E94F3
:10122000280627E02E9DC0012F9D900D11249C01C2
:1012300025523D4F7901F9011182108222E030E000
:10124000AE014B5F5F4F68E270E0812F0E946D0737
:101250008D819E81982789279827F7019383828320
:1012600016821582148298CF80E090ECCACFCF927C
:10127000DF92EF92FF921F93CF93DF93EC017B01FC
:101280006A018C85843048F40E945D06882319F039
:101290008C850E94380684E08C87F70182819381D7
:1012A000A481B5810097A105B10551F490E080E0DB
:1012B000DF91CF911F91FF90EF90DF90CF90089535
:1012C0008F3F9F4FAF4FBF4F89F38091F70281113E
:1012D00003C084E08C87EACF70E060E081E20E9486
:1012E0009608182F8C87843008F780E591E00E94DB
:1012F0008D00A7014E5F5F4F24E030E06CE070E0AE
:10130000812F0E947404B601812F0E94850464E03D
:1013100070E0812F0E9428060E94D0016B017C01A1
:101320008C850E945D06873109F18C31F9F08823A4
:1013300009F4BCCF0E94D001AB01BC014C195D097E
:101340006E097F098D859E85B0E0A0E08417950722
:10135000A607B70738F061E070E080E090E00E94F7
:101360009E01DECF8C850E944406B3CF81E090E0E1
:101370009FCF0F931F93CF93DF93EC018B01888D49
:10138000843010F40E9444068091F702811107C056
:1013900094E0988FDF91CF911F910F910895B8013C
:1013A00082E00E949608888F843030F41D870C8775
:1013B0001A8E198E81E0EECF80E0ECCF7F928F9273
:1013C0009F92AF92BF92CF92DF92EF92FF920F93D4
:1013D0001F93CF93DF9300D0CDB7DEB7782E8B016C
:1013E0004A01590122E030E0AE014F5F5F4F64E2F5
:1013F00070E00E946D07E980FA80FE24EF24FE244D
:10140000E00EF11E970137704091F702072D10E0B2
:10141000433309F042C0085F1F4F102F0027110F00
:10142000110F110FC901800F911F4733C9F1A90195
:101430004A0D5B1D4130584098F160E078E06B0147
:10144000C21AD30AA601B4010E94A303A5014C1934
:101450005D09B4016C0D7D1DC8010E94A303EA0C57
:10146000FB1CF982EA8222E030E0AE014F5F5F4F61
:1014700064E270E0872D0E9474040F900F90DF915A
:10148000CF911F910F91FF90EF90DF90CF90BF9081
:10149000AF909F908F907F900895005F1F4FBDCFBA
:1014A000A501B401DACFEF92FF921F93CF93DF93A0
:1014B00000D0CDB7DEB7182F22E030E0AE014F5F8D
:1014C0005F4F60E270E00E946D07E980FA80FE24C1
:1014D000EF24FE2422E030E0AE014F5F5F4F60E278
:1014E00070E0812F0E946D0789819A819827892752
:1014F0009827E816F90689F487E0189FF00111246F
:10150000E552FD4FF582E482C7010F900F90DF9105
:10151000CF911F91FF90EF9008957C01DBCF1F9337
:10152000CF93DF93182F80E591E00E948D00812FEB
:101530000E94530AEC0163E070E0812F0E940B06C9
:10154000873121F08C3111F0D0E0C0E0CE01DF9185
:10155000CF911F910895CF93DF93EC018C85843058
:1015600060F40E945D06873111F08C3131F48C8576
:101570000E948F0A8115984088F3DF91CF910895DA
:10158000FC018485843010F40C948F0A90E080E094
:1015900008959F92AF92BF92CF92DF92EF92FF9207
:1015A0000F931F93CF93DF938C015B01942EE52E55
:1015B000FC01C688D788F08C80E591E00E948D0000
:1015C0008F2D0E94530AC92DDE2D8C179D0708F41C
:1015D000EC019E01A501B6018F2D0E94DE09F801E4
:1015E000868997898C0F9D1F978B868BCE01DF9103
:1015F000CF911F910F91FF90EF90DF90CF90BF9010
:10160000AF909F9008958F929F92AF92BF92CF928A
:10161000DF92EF92FF920F931F93CF936C015B01C8
:101620008A01FC01C485C430F0F57A01413058408C
:1016300018F0E12C88E0F82E80E591E00E948D0002
:101640008C2F0E94530A4C0163E070E08C2F0E94A3
:101650000B06873111F08C3149F58E149F0460F32D
:1016600080E591E00E948D009701A50170E060E0A7
:101670008C2F0E94DE0960E270E08C2F0E94280609
:1016800062E070E08C2F0E940B0684FD17C063E0BF
:1016900070E08C2F0E940B0681110BC081E090E05E
:1016A000F6019383828310E000E010C0F12CE12C5E
:1016B000D7CF80E591E00E948D00E2CF40E162E06B
:1016C00070E08C2F0E94AF04EF2841F3C801CF9146
:1016D0001F910F91FF90EF90DF90CF90BF90AF9050
:1016E0009F908F900895FF920F931F93CF93DF9356
:1016F00000D0CDB7DEB7F82E22E030E0AE014F5F6C
:101700005F4F66E270E00E946D0709811A81102721
:101710000127102722E030E0AE014F5F5F4F66E205
:1017200070E08F2D0E946D0789819A819827892703
:1017300098270817190749F4C8010F900F90DF91F7
:10174000CF911F910F91FF9008958C01E3CF1F93CC
:10175000CF93DF93182F87E0189FE0011124C55223
:10176000DD4F88819981009761F480E591E00E94C6
:101770008D00812F0E94730B2E81821B910999830A
:101780008883DF91CF911F910895FC018485843077
:1017900010F40C94A70B90E080E008954F925F92B4
:1017A0007F928F929F92AF92BF92CF92DF92EF92F1
:1017B000FF920F931F93CF93DF9300D0CDB7DEB787
:1017C000782E6B014A01A82EB12C27E0829FC00120
:1017D0001124FC01E552FD4F7F010081118180E55C
:1017E00091E00E948D000815190554F4872D0E9480
:1017F000730BF70126818C01021B110911830083F1
:101800000115110529F563E070E0872D0E940B0694
:10181000843159F0882349F001E010E08C3111F453
:1018200010E000E0119501951109C8010F900F908B
:10183000DF91CF911F910F91FF90EF90DF90CF90AC
:10184000BF90AF909F908F907F905F904F90089542
:10185000801691060CF4840187E08A9DF0018B9D2F
:10186000F00D1124E552FD4FE280F380C114D10444
:1018700051F12701F7E05F22872D0E946604840D55
:10188000951D2091F702273309F453C09801240DC8
:10189000351D2130384008F44CC020E038E04901C3
:1018A00084189508A401B6010E9480052601480C01
:1018B000591C6801C818D908872D0E946604A60122
:1018C000B2010E948005E00EF11E87E08A9DF001C2
:1018D0008B9DF00D1124E552FD4FF382E2822081B1
:1018E0003181201B310B318320838681800F912F22
:1018F000911D8A3F910510F4232BF1F487E08A9D16
:10190000F0018B9DF00D1124E552FD4F1682F982F6
:10191000EA8222E030E0AE014F5F5F4F68E270E0A4
:10192000872D0E94740460E470E0872D0E942806D1
:101930007CCFA801B601C5CF868377CFCF93DF9345
:10194000FC01218D328D2115310529F48FEF9FEF98
:10195000DF91CF910895EC01808D4217530708F075
:10196000A9010E94CE0B1816190684F7298D3A8D0D
:10197000281B390B3A8F298FEBCF0F931F93CF93EF
:10198000DF931F92CDB7DEB7FC01218D328D232B63
:1019900041F48FEF9FEF0F90DF91CF911F910F9147
:1019A00008958C0141E050E0BE016F5F7F4FFC0164
:1019B000808D0E94CE0B181619065CF7F801818DF8
:1019C000928D0197928F818F898190E0E4CFCF93A0
:1019D000DF931F92CDB7DEB741E050E0BE016F5FED
:1019E0007F4FFC0184850E94CE0B1816190634F433
:1019F000898190E00F90DF91CF9108958FEF9FEF55
:101A0000F9CFFC018485843010F40C94CE0B90E067
:101A100080E008950F931F93CF93DF9300D0CDB74D
:101A2000DEB7FC0124852430E0F48C0180E591E0F0
:101A30000E948D0022E030E0AE014F5F5F4F60E119
:101A400070E0F80184850E946D0789819A8198274A
:101A5000892798270F900F90DF91CF911F910F91B9
:101A6000089590E080E0F6CF0F931F93CF93DF931C
:101A700000D0CDB7DEB7FC0124852430E0F48C0122
:101A800080E591E00E948D0022E030E0AE014F5FE2
:101A90005F4F64E070E0F80184850E946D078981E2
:101AA0009A819827892798270F900F90DF91CF91DF
:101AB0001F910F91089590E080E0F6CFAF92BF9212
:101AC000CF92DF92EF92FF920F931F93CF93DF930A
:101AD000CDB7DEB77C01ADB6BEB68DB79EB7841B61
:101AE000950B0FB6F8949EBF0FBE8DBFADB7BEB7B6
:101AF00011966D01FB01460F571FE417F50719F00A
:101B000081918D93FACF0091CA021091CB02F70117
:101B10009F012E193F098191D801882301F14D9130
:101B20005C91DA01A20FB31F9C91891302C083322A
:101B300079F3F801048115810115110541F70FB6FC
:101B4000F894BEBE0FBEADBEDF91CF911F910F9135
:101B5000FF90EF90DF90CF90BF90AF9008951296D6
:101B6000ED91FC91B601C7010995E3CFDC0186EB4D
:101B700091E08D939D9384E0FB0101900D928A95F5
:101B8000E1F70895EF92FF920F931F93CF93DF93A6
:101B900000D000D0CDB7DEB78C017B01FB0184857E
:101BA0008430A8F086EB91E0F80191838083128263
:101BB000138214821582C8010F900F900F900F901E
:101BC000DF91CF911F910F91FF90EF90089580E5E5
:101BD00091E00E948D0024E030E0AE014F5F5F4F46
:101BE0006CE070E0F70184850E946D07BE016F5FB5
:101BF0007F4FC8010E94B60DDECF0F931F93CF9386
:101C0000DF93CDB7DEB728970FB6F894DEBF0FBECF
:101C1000CDBF8C01D80159964D915C915A974115D1
:101C2000510551F0ED91FC91048CF58DE02D70E0A3
:101C300060E0C8010995EECFF801808D0E94A70BE6
:101C4000892BB1F148E050E0BE016F5F7F4FD801B2
:101C500058968C910E94CE0B18161906F4F4D801F0
:101C6000509684E0FE01319601900D928A95E1F73D
:101C70008D8190E0982F88272E81820F911DF80189
:101C8000958B848B8F81282F30E0322F22278885F7
:101C9000820F932F911D928F818F28960FB6F89403
:101CA000DEBF0FBECDBFDF91CF911F910F91089581
:101CB00090E080E0F2CF4F925F926F927F928F928E
:101CC0009F92AF92BF92CF92DF92EF92FF920F93CB
:101CD0001F93CF93DF93CDB7DEB763970FB6F8941A
:101CE000DEBF0FBECDBF7C016B013A01FB0120E0DE
:101CF00090E080E06AE03191332309F461C040ED67
:101D0000430F4A3008F04DC0689FA001699F500DF5
:101D10001124CA01C097830F911D37FD9A958F3FFB
:101D2000910549F340F3F701428153816481758144
:101D30008091A3039091A403A091A503B091A60361
:101D4000481759076A077B0709F40DC28701085F26
:101D50001F4F0E94D0016F7077277C5FC8010E94DF
:101D6000B909813009F004C286EB91E09A83898336
:101D7000F70182819381A481B5818B839C83AD839C
:101D8000BE8345E350E0BE016F5F7F4FC8010E94F4
:101D90000B05892BA9F5D12CC12CC8010E94500636
:101DA00017C03E3209F0BFCF233009F4BCCFD301B6
:101DB000A20FB11D12968C932F5F90E080E09BCF15
:101DC000233009F0B0CFF3018583CC24C394D12C08
:101DD000C60163960FB6F894DEBF0FBECDBFDF918C
:101DE000CF911F910F91FF90EF90DF90CF90BF9018
:101DF000AF909F908F907F906F905F904F900895DD
:101E00000E94D001F7017783668342E050E0B7017A
:101E10006A5F7F4FC8010E94C90A81E090E09A83FF
:101E2000898342E050E0BE016F5F7F4FC8010E948E
:101E3000C90A80E091E09A83898342E050E0BE01C4
:101E40006F5F7F4FC8010E94C90A1A82198242E05F
:101E500050E0BE016F5F7F4FC8010E94C90A42E097
:101E600050E0BE016F5F7F4FC8010E94C90A42E087
:101E700050E0BE016F5F7F4FC8010E94C90A560142
:101E8000F6018081882301F16501F60181912F011E
:101E9000882311F08E32B1F446018A189B08181479
:101EA000190474F48D8641E050E0BE01635F7F4FFA
:101EB000C8010E94C90AA401B501C8010E94C90A4B
:101EC0005201DECF6201E1CF1D8641E050E0BE014C
:101ED000635F7F4FC8010E94C90AC12CDD24D394DF
:101EE000DA82C98242E050E0BE016F5F7F4FC801D5
:101EF0000E94C90ADA82C98242E050E0BE016F5FE7
:101F00007F4FC8010E94C90AC8010E94C406892BDC
:101F100009F441CFF3E0AF2EB12C230122E0420EB1
:101F2000511CD4C0F7014281538164817581808D39
:101F3000918DA28DB38D481759076A077B0709F069
:101F400008C1848D958DC59709F003C181A192A127
:101F50005DEFC52EDD24DA940C970CF4ADC04CE097
:101F600050E0BE016F5F7F4FC8010E949E0C8B81C5
:101F70009C819827892798279A8B898BF70146811E
:101F8000578129813A814217530709F0E7C097FF2B
:101F9000E5C08F7092703BEFC32EDD24DA94892B5D
:101FA00009F08AC06F8078847624672476242AEF2B
:101FB000C22EDD24DA946114710409F47DC0D12CA1
:101FC000C12C8D819E81982789279827C816D9060C
:101FD000F8F441E050E0BE01635F7F4FC8010E940A
:101FE0009E0C4D85442331F050E070E060E0C80164
:101FF0000E949E0C8D858111ECCF44E050E070E092
:1020000060E0C8010E949E0CFFEFCF1ADF0AD9CF13
:10201000912C812C41E050E0BE016D5E7F4FC801E4
:102020000E949E0C4B89842F807C09F06CC0442355
:1020300031F050E070E060E0C8010E949E0C8B8996
:102040008111E8CF42E050E0BE01615F7F4FC801DF
:102050000E949E0C42E050E0BE01635F7F4FC801CA
:102060000E949E0C44E050E070E060E0C8010E94D5
:102070009E0C42E050E0BE016F5E7F4FC8010E949F
:102080009E0C8F85988949895A898115914009F05C
:1020900043C0CD84DE84DC24CD24DC2481E0C8165A
:1020A000D104D1F54115544009F04AC044E050E054
:1020B000B201C8010E949E0C21E0A21AB10809F4E5
:1020C0006CCEFFEFCF16DF0609F067CE0E94D0017D
:1020D0003B014C01C8010E94FD0D181619060CF4B5
:1020E00021CF0E94D00166197709880999096938BA
:1020F00073418105910548F562E370E080E090E06E
:102100000E949E01E7CF41E050E070E060E0C8012E
:102110000E949E0C1B8A93CF54274527542770E0BA
:1021200060E0C8010E949E0CFFEF8F1A9F0A68149E
:10213000790409F06FCF96EFC92EDD24DA94BCCF75
:10214000E7EFCE2EDD24DA94B7CFCC24CA94DC2C72
:10215000B3CF6EEFC62EDD24DA94AECF4CEFC42E93
:10216000DD24DA94A9CF8EEFC82EDD24DA9430CEA8
:10217000D12CC12C2DCECF92DF92EF92FF920F93F4
:102180001F93CF93DF93CDB7DEB7AF970FB6F89419
:10219000DEBF0FBECDBF7C016A0106EB11E01A83E2
:1021A00009831C861B8688EE93E0A0E0B0E08D8753
:1021B0009E87AF87B88B83E291E09A878987188FD3
:1021C0000F8B198E1A8E1B8E1C8E84E089A31BA781
:1021D0000AA71CA61DA61EA61FA68091C703909144
:1021E000C803A091C903B091CA038EA39FA3A8A757
:1021F000B9A78B839C83AD83BE8318861F82AE01F3
:10220000465D5F4FCE0101960E945B0E81309105C5
:10221000B1F4D701ED91FC910488F589E02D1DA35F
:102220000CA38CA59DA5AEA5BFA58EA39FA3A8A713
:10223000B9A7A601BE016C5D7F4FC7010995AF9696
:102240000FB6F894DEBF0FBECDBFDF91CF911F91C7
:102250000F91FF90EF90DF90CF900895CF92DF9293
:10226000EF92FF920F931F93CF93DF93CDB7DEB71B
:10227000AF970FB6F894DEBF0FBECDBF8C016B01D8
:102280007A0186EB91E09A8389831B821C821D82EE
:102290001E821C861B8648EE53E060E070E04D878E
:1022A0005E876F87788B23E231E03A872987988FA2
:1022B0008F8B198E1A8E1B8E1C8E24E029A39BA750
:1022C0008AA71CA61DA61EA61FA6D8011C968C9127
:1022D000843060F40E945D06882321F0F801848533
:1022E0000E94380684E0D8011C968C938091C70325
:1022F0009091C803A091C903B091CA038EA39FA374
:10230000A8A7B9A78B839C83AD83BE8318861F8241
:10231000AE01465D5F4FB601CE0101960E945B0E95
:102320000097C1F0D801ED91FC910684F785E02D6E
:1023300086EB91E09DA38CA38CA59DA5AEA5BFA522
:102340008EA39FA3A8A7B9A7A701BE016C5D7F4F6D
:10235000C8010995AF960FB6F894DEBF0FBECDBF8A
:10236000DF91CF911F910F91FF90EF90DF90CF9071
:102370000895FB0101900020E9F73197AF01461B5A
:10238000570BDC01ED91FC910280F381E02D099463
:102390008F929F92AF92BF92EF92FF920F931F93F3
:1023A000CF93DF93CDB7DEB7A1970FB6F894DEBF1A
:1023B0000FBECDBF7C01FA01CB0119A2223008F477
:1023C0002AE08E010F5D1F4F822E912CB12CA12C83
:1023D000BF01A50194010E945220F901CA016A308F
:1023E0000CF5605DD8016E938D01232B242B252BDA
:1023F00079F790E080E0109721F0BD01C7010E94BD
:10240000B911A1960FB6F894DEBF0FBECDBFDF9114
:10241000CF911F910F91FF90EF90BF90AF909F9041
:102420008F900895695CDECF8F929F92AF92BF929A
:10243000CF92DF92EF92FF920F931F93CF93DF9390
:102440007C01EB016C0182E0C80ED11C4701E5E084
:102450008E0E911C10E000E0F60141916F0150E0FA
:1024600070E060E02AE0CE010E94C8115C01E881C2
:10247000F9810190F081E02D6EE2CE0109958A0D7F
:102480009B1D080F191FC814D90431F7F7014581A6
:1024900050E070E060E02AE0CE010E94C811800F99
:1024A000911FDF91CF911F910F91FF90EF90DF90DF
:1024B000CF90BF90AF909F908F900895CF93DF9370
:1024C000D0E0C0E0009731F0BC0188EF92E00E94BC
:1024D000B911EC0168EB71E088EF92E00E94B9114C
:1024E0008C0F9D1FDF91CF910895CF93DF93EB0168
:1024F000009729F0BC0188EF92E00E94B9116BEBC4
:1025000071E088EF92E00E94B911CE01DF91CF9186
:102510000C945E123F924F925F926F927F928F92D5
:102520009F92AF92BF92CF92DF92EF92FF920F9362
:102530001F93CF93DF93CDB7DEB7EA970FB6F8942A
:10254000DEBF0FBECDBF7C012A013B0169010E94A5
:10255000D0014B015C0187010D5B1F4FC8010E9438
:10256000FD0D181619069CF00E94D0016819790912
:102570008A099B09461657066806790608F466C15B
:1025800062E370E080E090E00E949E01E7CF42E2CB
:1025900050E0BE016F5F7F4FC8010E949E0C898191
:1025A0008230D1F0312C832DEA960FB6F894DEBF3D
:1025B0000FBECDBFDF91CF911F910F91FF90EF9094
:1025C000DF90CF90BF90AF909F908F907F906F9053
:1025D0005F904F903F900895F801848995898334E6
:1025E000910501F76D817E818F8198850E948320FE
:1025F0004B015C01F60180829182A282B38246E0A7
:1026000050E0B701685F7F4FCE014D960E94B52123
:10261000892B41F6F70180819181A281B3818816CF
:102620009906AA06BB0608F4BDCF84819581A681D0
:10263000B78188159905AA05BB0508F4B3CF898928
:102640009A89AB89BC8986879787A08BB18B4EEC22
:1026500050E070E060E0C8010E949E0C312CC70180
:10266000829698AB8FA7F701B696FAABE9AB0896BE
:102670009CAB8BAB67019AE1C90ED11CBD96FEAB3A
:10268000EDABC701429698AF8FABFD97FAAFE9AFBC
:102690004701FEE18F0E911CF801818D928D181675
:1026A00019060CF080CFC8010E94BD0C8333910540
:1026B00009F4B2C014F58130910509F464C044F402
:1026C000892B51F3C8010E94BD0CAC01552775C080
:1026D0008330910509F462C00697A1F7C8010E94F2
:1026E000BD0CB82E44E050E0B401C8010E949E0C1D
:1026F000EB2DE450FF0BAF0160C08A33910509F464
:102700005FC084F585339105B1F1C697D9F6C8014C
:102710000E94BD0C5C01B601CE0189960E94B60DE7
:102720008BA59CA5ADA5BEA5892B8A2B8B2BB1F0C3
:10273000EDA9FEA94080518062807380B601CE0170
:1027400083960E94B60D8DA19EA1AFA1B8A5A5014B
:10275000481659066A067B0609F0B8CF44E050E0F7
:10276000B60118C08B33910509F440C08F3F910525
:1027700009F492CFA7CFC8010E94BD0CC8010E94E6
:10278000BD0C382E89CFC8010E94BD0C44E050E03A
:102790006FA978ADC8010E949E0C7ECFC8010E942F
:1027A000BD0CB82E44E050E069AD7AADC8010E947E
:1027B0009E0C8B2D8450990BAC0170E060E0EACF49
:1027C000C8010E94BD0C44E050E069A97AA9C80183
:1027D0000E949E0CF70166A177A180A591A50E9499
:1027E000832066A377A380A791A756CFC8010E9434
:1027F000BD0C44E050E06BA97CA9C8010E949E0C6E
:10280000F70162A573A584A595A50E94832062A700
:1028100073A784A795A740CFC8010E94BD0C44E0D0
:1028200050E06FA578A9C8010E949E0CF70162A133
:1028300073A184A195A10E94832062A373A384A3A2
:1028400095A366A777A780AB91AB26CF33243A94A4
:10285000AACE7F928F929F92AF92BF92CF92DF9239
:10286000EF92FF920F931F93CF93DF93CDB7DEB715
:10287000A6970FB6F894DEBF0FBECDBF8C01762EA3
:10288000942E852E20E2A22ECE0101967C01DC0141
:10289000EA2D1D92EA95E9F76801F3E4CF0ED11C09
:1028A00086EB91E09AA389A38FEF8BA38CA38DA3D2
:1028B0008EA343E450E0BE016F5D7F4FC6010E94CE
:1028C0000B05019609F4BFC081E089838A8386E005
:1028D000B82EBB821C82D80114966D917D918D918A
:1028E0009C9117970E9483206D837E838F839887A6
:1028F00089869A8680E890E09C878B874CE150E03F
:10290000B701C6010E94C90AFE0137968AE1DF01BC
:102910001D928A95E9F74801B8E08B0E911CF401ED
:10292000D70101900D92BA94E1F740E150E0B70170
:10293000C6010E94C90AF7011192AA94E9F796E02C
:10294000A92EB12C40E250E0B701C6010E94C90A8D
:10295000F1E0AF1AB108B1F783E6898392E89A8370
:1029600093E59B838C8385E38D8381E08E837F82D7
:102970009DE3988797E099878A8786E0F401DE01D6
:102980001B9601900D928A95E1F78CE0898B8A8BDA
:102990006EEB71E0CE0143960E94C921D8011B96CF
:1029A0006C91CE0149960E949000F8016485CE0199
:1029B0004B960E949000D8011D966C91CE014D96C9
:1029C0000E9490004EE150E0B701C6010E94C90A82
:1029D000B3E07B121EC082E3898384E08A83F8011E
:1029E00096859B8397859C8390899D8391899E83FF
:1029F00096E39F838887828D8987838D8A87848DDC
:102A00008B87858D8C874CE050E0B701C6010E9412
:102A1000C90A87E3898386E08A8391E09B8393E0F8
:102A20009C838D838FE08E838AE38F838BE38887FB
:102A30008FEF898749E050E0B701C6010E94C90ABB
:102A4000C6010E94C406A6960FB6F894DEBF0FBE5C
:102A5000CDBFDF91CF911F910F91FF90EF90DF904D
:102A6000CF90BF90AF909F908F907F9008952F92BE
:102A70003F924F925F926F927F928F929F92AF920E
:102A8000BF92CF92DF92EF92FF920F931F93CF935B
:102A9000DF9300D000D000D0CDB7DEB78C010E940C
:102AA000BD1F2FEC37E040E050E00E942020DC0109
:102AB000CB010196A11DB11DF80184839583A683E6
:102AC000B78380839183A283B3835801F3E4AF0E6D
:102AD000B11CC5010E94500664E470E0C5010E946B
:102AE000B909882309F445C10E94D0012B013C019A
:102AF000480182E4880E911C48EEC42E43E0D42E97
:102B0000E12CF12C52E0252E1E821D82D4018C91E5
:102B10008330B1F1811166C0F80184819581A6816D
:102B2000B7810196A11DB11D84839583A683B783C8
:102B30000E94D0016419750986099709A7019601B9
:102B40000E945220A90161E0C8010E94291481E07D
:102B5000D4018C938D819E810197C1F20E94D00196
:102B60006419750986099709D801D6962D913D916A
:102B70004D915C91D997261737074807590720F6DA
:102B8000C5010E945006F80184819581A681B78114
:102B90000196A11DB11D84839583A683B7830E94EE
:102BA000D001F801FE9660837183828393838D81C7
:102BB0009E8126960FB6F894DEBF0FBECDBFDF9183
:102BC000CF911F910F91FF90EF90DF90CF90BF902A
:102BD000AF909F908F907F906F905F904F903F90BD
:102BE0002F9008958430F1F4F80184819581A681B5
:102BF000B7810196A11DB11D84839583A683B783F8
:102C00000E94D0016419750986099709A7019601E8
:102C10000E945220A90163E0C8010E942914D40136
:102C20002C9298CF813051F5F80142AD53AD64AD8F
:102C300075AD9E012F5F3F4FC8010E948A12382E4A
:102C4000F2E08F1390C089819A81AB81BC81F80139
:102C500084839583A683B7830E94D0016419750984
:102C600086099709A70196010E945220A90163E0F5
:102C7000C8010E942914D4013C926CCF823009F023
:102C800069CFF80142AD53AD64AD75AD9E012F5FC4
:102C90003F4FC8010E948A12382EF5E08F135DC0A5
:102CA000E3E0D401EC93F80182A193A1A4A1B5A122
:102CB000892B8A2B8B2B41F484E893E0A0E0B0E0D1
:102CC00082A393A3A4A3B5A3F80186A197A1A0A56D
:102CD000B1A5892B8A2B8B2B61F482A193A1A4A18E
:102CE000B5A1B695A7959795879586A397A3A0A715
:102CF000B1A7F80182A593A5A4A5B5A5892B8A2B18
:102D00008B2BA9F482A193A1A4A1B5A1AC01BD0113
:102D100023E076956795579547952A95D1F7841BBB
:102D2000950BA60BB70B82A793A7A4A7B5A7F8018D
:102D300086A197A1A0A5B1A586A797A7A0ABB1AB87
:102D400082A593A5A4A5B5A582AB93ABA4ABB5AB67
:102D500081E090E09E838D83FDCE96E0891303C0D1
:102D6000D4011C92F7CEBFEF3B12F4CEF4011082D7
:102D7000F1CE1E821D821BCF0C942C211F920F922C
:102D80000FB60F9211242F933F938F939F93AF937E
:102D9000BF938091D3029091D402A091D502B091BB
:102DA000D6023091D20223E0230F2D3758F5019639
:102DB000A11DB11D2093D2028093D3029093D4021F
:102DC000A093D502B093D6028091D7029091D802F9
:102DD000A091D902B091DA020196A11DB11D809394
:102DE000D7029093D802A093D902B093DA02BF9190
:102DF000AF919F918F913F912F910F900FBE0F90A8
:102E00001F90189526E8230F0296A11DB11DD2CF61
:102E10001F920F920FB60F9211242F933F934F934F
:102E20005F936F937F938F939F93AF93BF93EF9332
:102E3000FF9388EF92E00E94A502FF91EF91BF916E
:102E4000AF919F918F917F916F915F914F913F9142
:102E50002F910F900FBE0F901F9018951F920F92F9
:102E60000FB60F9211242F938F939F93EF93FF939D
:102E7000E0910803F09109038081E0910E03F09145
:102E80000F0382FD1BC09081809111038F5F8F73B0
:102E900020911203821741F0E0911103F0E0E85015
:102EA000FD4F958F80931103FF91EF919F918F912B
:102EB0002F910F900FBE0F901F9018958081F4CF27
:102EC000CF93DF93E8EFF2E01382128248EE53E0F3
:102ED00060E070E0448355836683778386E691E003
:102EE0009183808385EC90E09587848784EC90E0E3
:102EF0009787868780EC90E0918B808B81EC90E0C7
:102F0000938B828B82EC90E0958B848B86EC90E0A7
:102F1000978B868B118E128E138E148EE5E9F3E05B
:102F200086EB91E091838083128213821482158252
:102F3000EBE9F3E09183808312821382148215827D
:102F4000E1EAF3E091838083128213821482158276
:102F5000E7EAF3E091838083128213821482158260
:102F6000EDEAF3E09183808312821382148215824A
:102F7000E3EBF3E091838083128213821482158243
:102F8000E9EBF3E09183808312821382148215822D
:102F9000EFEBF3E091838083128213821482158217
:102FA000EBECF3E09183808312821382148215820A
:102FB000E5ECF3E091838083128213821482158200
:102FC000E9E0F4E0918380831282138214821582F7
:102FD000EAEFF3E01382128244835583668377839A
:102FE00024E831E03183208324E0248728EE33E095
:102FF00036872587C1EDD3E01B821A8228E731E0AE
:10300000398328839C8F8B8F1D8E1E8E1F8E18A256
:103010008FEF9FEF98A78FA3FD83EC831EA21DA2C5
:1030200080E091E00E9490209F838E8380E091E079
:10303000998788878FE090E09B878A879D878C8718
:10304000DF91CF910895CF93DF93CDB7DEB76A9725
:103050000FB6F894DEBF0FBECDBF789484B5826002
:1030600084BD84B5816084BD85B5826085BD85B52C
:10307000816085BD80916E00816080936E001092AA
:103080008100809181008260809381008091810025
:1030900081608093810080918000816080938000B6
:1030A0008091B10084608093B1008091B000816014
:1030B0008093B00080917A00846080937A00809140
:1030C0007A00826080937A0080917A008160809398
:1030D0007A0080917A00806880937A001092C10013
:1030E0001092D1021092D002E0910803F0910903EE
:1030F00082E08083E0910403F09105031082E09167
:103100000603F09107038FEC808310921003E09187
:103110000C03F0910D0386E08083E0910A03F091A7
:103120000B03808180618083E0910A03F0910B039F
:10313000808188608083E0910A03F0910B03808195
:1031400080688083E0910A03F0910B0380818F7D7A
:1031500080838DEC91E00E945E1265ED71E088EF56
:1031600092E00E94B9118091C20281112AC010928E
:10317000AA021092A90288EE93E0A0E0B0E080934A
:10318000AB029093AC02A093AD02B093AE0283E287
:1031900091E09093A8028093A70286EB91E0909330
:1031A000B6028093B5021092B7021092B802109244
:1031B000B9021092BA0284E08093BF0281E080934A
:1031C000C20284E692E09093CD028093CC0280917B
:1031D00063028111A9C060E372E080E090E00E9488
:1031E0009E01DFB6F89404EA10E0B8EBEB2EB0E0F5
:1031F000FB2E80916102811122C0F8018491F701B8
:103200009491E82FF0E0EE0FFF1FE057FF4FA591DC
:10321000B4918C91982321F461E08AE00E944B01E3
:103220008AE00E94A2008CB580618CBD8CB5806460
:103230008CBD8DE00E94A2008BE00E94A2008091D4
:1032400061028F5F80936102DFBEF8010491E02F7D
:10325000F0E0EE0FFF1FEA57FF4F85919491909396
:10326000600280935F02F701E490E0925E028AE0E0
:103270000E94A2000E94870380E591E00E948D00D9
:1032800084E38093F70280E80E9453040E940807B9
:10329000882309F4F6C088E00E9453040E94F506D2
:1032A000883009F0EEC080E10E9453040E94F506C8
:1032B000803109F0E6C080E00E9453040E94F506C8
:1032C000182F8111DEC041E050E0BE016F5F7F4FDB
:1032D0008FE190E00E9480058981833009F0D1C0A0
:1032E00080E48093620242E06EE170E0812F0E94F0
:1032F000AF0442E06FE170E0812F0E94AF041F5FD6
:10330000143089F740E06EE170E0812F0E94AF0435
:1033100040E06FE170E0812F0E94AF041F5F183022
:1033200089F781E08093630280E591E00E948D003F
:1033300046E050E060E071E089E090E00E94A30385
:1033400086EB91E09A8389831B821C821D821E82F8
:10335000CE0103960E9403058091CC029091CD028C
:10336000DC0192961D921D921D921C929597FC0174
:1033700016A217A210A611A69A961D921D921D9232
:103380001C929D9740E65AEE60E070E046AB57AB6A
:1033900060AF71AF40EA5FE060E070E0DA964D93B5
:1033A0005D936D937C93DD973E9624E1DF011D9242
:1033B0002A95E9F726E0E0E0F1E0DC0118960190BB
:1033C0000D922A95E1F7FC01EE5BFF4F10820E94FF
:1033D00037157C01019709F0BFC080E591E00E949C
:1033E0008D000091CC021091CD02B801625F7F4F39
:1033F000CE0101960E94B60DCE0103960E940305F0
:10340000B8016A5E7F4FCE0101960E94B60D44E07E
:1034100050E0BE016D5F7F4F81E090E00E94A3030A
:10342000B8016E5E7F4FCE0101960E94B60D44E05A
:1034300050E0BE016D5F7F4F85E090E00E94A303E6
:10344000B801625E7F4FCE0101960E94B60D8B815E
:103450009C81AD81BE818093C7039093C803A093E4
:10346000C903B093CA030E9479017F73809106015A
:1034700090910701682779277093070160930601EF
:103480006BC087E38093F70280E80E9453040E9498
:103490000807882329F188E00E9453040E94F5065A
:1034A0008830F1F480E10E9453040E94F506182F41
:1034B0008031B1F480E00E9453040E94F50681112E
:1034C0000FC041E050E0BE016F5F7F4F89E390E0A5
:1034D0000E9480058981843019F41093620221CF03
:1034E00083E38093F70280E80E9453040E94080758
:1034F000882371F180E10E9453040E94F506803117
:1035000039F582E10E9453040E94F506823101F5EB
:1035100080E00E9453040E94F506811119C084E0E6
:103520008093620215E51D8741E050E0BE01635FB4
:103530007F4F8BE190E00E94A3031C8741E050E0A5
:10354000BE01645F7F4F8AE190E00E94A303E9CE51
:103550001092F702F12CE12CE091F702E353E530F1
:1035600030F4F0E0E75BFE4F808181110FC081E015
:1035700090E09093D1028093D00281EE91E00E947E
:103580005E1280EF91E00E945E12FFCF8AEC91E024
:103590000E945E1261E172E088EF92E00E94B91130
:1035A000EF2809F0EDC183E090E09093D102809381
:1035B000D00285EC91E00E945E128091D002909141
:1035C000D102039729F181E292E00E945E1286EB1C
:1035D00091E09A8389831B821C821D821E8280E572
:1035E00091E00E948D0044E050E0BE016D5F7F4F8E
:1035F0008FE090E00E94800568EF72E0CE010196B6
:103600000E94141268EB71E088EF92E00E94B911F9
:103610008EE491E09093F3038093F2038BE597E0BF
:103620009093F5038093F4038EE59DE09093EB0374
:103630008093EA0386E090E00E949020FC0188E2FB
:1036400092E09183808385E792E1938382838091E6
:10365000CA029091CB0295838483F093CB02E093CE
:10366000CA021E01E8E02E0E311C0E94D001603A11
:1036700076488140910508F4EBC00091CC0210918E
:10368000CD020115110509F4E3C00E94D0012B0100
:103690003C0178012EE3E20EF11CF701808191815B
:1036A000A281B381A3019201281B390B4A0B5B0B4A
:1036B000CA01B901683E33E0730781059105A0F1A5
:1036C00028EE33E040E050E00E945220461A570AAC
:1036D000680A790AD7014D925D926D927C92139798
:1036E000F80186A597A5A0A9B1A969017A01CC0C1A
:1036F000DD1CEE1CFF1C8C159D05AE05BF0508F0FA
:1037000049C116A617A610AA11AAF80182A993A961
:10371000A4A9B5A98C159D05AE05BF0508F043C148
:1037200012AA13AA14AA15AAF80186A597A5A0A9FA
:10373000B1A9892B8A2B8B2B09F03EC1EE5BFF4F81
:103740008081833009F038C184E08083C8010E9401
:10375000371501967C01F80182A993A9A4A9B5A9FE
:10376000892B8A2B8B2BA1F4EE5BFF4F808183305A
:1037700011F081110DC01082F8013E9684E1DF0145
:103780001D928A95E9F7C8010E94371503967C01BE
:10379000B2E0EB16F10429F0E4E0EE16F10409F0D2
:1037A00046C080E591E00E948D000091CC0210910E
:1037B000CD02B801625F7F4FCE0101960E94B60D27
:1037C000CE0103960E940305B8016A5E7F4FCE01C9
:1037D00001960E94B60D44E050E0BE016D5F7F4F40
:1037E00081E090E00E94A303B8016E5E7F4FCE019E
:1037F00001960E94B60D44E050E0BE016D5F7F4F20
:1038000085E090E00E94A303B801625E7F4FCE0185
:1038100001960E94B60D8B819C81AD81BE81809303
:10382000C7039093C803A093C903B093CA038091C0
:10383000D0029091D102F4E0EF16F10449F4833004
:10384000910511F490E080E09093D1028093D00232
:103850008091D0029091D102039709F42BC30E946A
:10386000C100811170C00E94D00168387341810588
:10387000910508F468C063E372E088EF92E00E946B
:10388000B9110E94C1008111C7C28091D5039091E6
:10389000D603DC01ED91FC910688F789E02D0995AE
:1038A000882309F48CC081E090E09093E00380933A
:1038B000DF0387E0E8E1F1E0DE01119601900D926F
:1038C0008A95E1F7DE01119685E090E02D91E09177
:1038D000D703F091D803E80FF91F208301968C30AD
:1038E0009105A1F70091D7031091D80382E0D80188
:1038F0001C968C931C978091DC031D968C931D97CE
:103900008091DB031E968C93E090D903F090DA034C
:10391000B7018AE591E00E9415204196E816F90664
:1039200008F084C08091D5039091D603DC01ED911D
:10393000FC910488F589E02D099584E090E090934E
:10394000D1028093D0028091D0029091D102823036
:10395000910509F49EC208F062C2009709F477C28B
:10396000019709F479C280E090E0892B09F47DCEBB
:103970000E949102882309F478CE0E94000075CE3F
:103980008091D0029091D102039709F412CE8AEC73
:1039900091E011CE821B930BA40BB50B86A797A7C2
:1039A000A0ABB1ABB2CE821B930BA40BB50B82AB19
:1039B00093ABA4ABB5ABB8CEF12CE12CCCCE6091DF
:1039C000F2037091F3038091D5039091D603DC014B
:1039D000ED91FC914091F4035091F503611571054F
:1039E00071F00088F189E02D0995019709F45BCF0A
:1039F000EEEFFFEFF093F903E093F8039ECF068418
:103A0000F785E02D06EB11E01A8309830091EE03A0
:103A10001091EF032091F0033091F1030B831C838D
:103A20002D833E83BE016F5F7F4FDECFF80171961D
:103A3000AAE5B1E0CD018A559140AF01401B510B81
:103A40002D91222311F02193F5CF9A01281B390BD8
:103A5000020F131FF8013297908301501109F801EA
:103A60008083455051096091D7037091D8038A0132
:103A700080E0902F9F77000F012F001F110B1195F1
:103A80000115110509F09068F101E80FF11D90830F
:103A90008F5F0115110569F790E0FB01E81BF90B39
:103AA00020E12483FB01E81BF90B3596D1019D0130
:103AB00022193309281739071CF42D912193F7CFC8
:103AC0009C012F5F3F4F8091D5039091D603420F09
:103AD000531F621B730B6B5F7F4FDC01ED91FC91F9
:103AE0000280F381E02D09950E94D0016093E103EB
:103AF0007093E2038093E3039093E4030E94D00168
:103B00006093E1037093E2038093E3039093E403F3
:103B10006093E5037093E6038093E7039093E803D3
:103B20008091D5039091D603DC01ED91FC91008446
:103B3000F185E02D0995892B31F50E94D001C090C7
:103B4000E503D090E603E090E703F090E8039B01E3
:103B5000AC012C193D094E095F0969017A012091D8
:103B6000DD033091DE03A8EEB3E00E947420C61698
:103B7000D706E806F906A0F28CEF9FEF9093F903C1
:103B80008093F803CFCE8091D7039091D8030E9401
:103B9000DC01882309F4C6CEE091D703F091D80365
:103BA00090801886E1E0F0E0FF87EE87412C512CF1
:103BB0003201C12CD12C7601C394C1010E94DC01D9
:103BC000882309F4AFCEAE84BF84BFEFAB1ABB0A23
:103BD0008885E091D703F091D8032E853F85E20FC9
:103BE000F31F8083E885AE2FAF77B0E0A701960181
:103BF0000E943F20460E571E681E791E97E0CC0C8F
:103C0000DD1CEE1CFF1C9A95D1F7E7FDBDC0392DD8
:103C1000307F3E8B99249A949A0C50E03033A9F56A
:103C20008091D7039091D8038A0D9B1D0E94DC01DF
:103C3000882309F477CE2091D7033091D8038E855D
:103C40009F850296820F931F0E94DC01882309F44E
:103C500069CEAE84BF8443E0A40EB11CE091D703CB
:103C6000F091D803DF01A90DB11D11960C911197A8
:103C700010E0102F002712968C91080F111D8081E3
:103C800081FF02C00E5F1F4F52E040E030E020E0B5
:103C9000C501B0E0A0E0C52ED42EE32EF22E950192
:103CA000AD012C193D094E095F092E873F87488BCE
:103CB000598B980150E040E02A8B3B8B4C8B5D8BFD
:103CC00089199109A109B1094EEF5FEF6FEF7FEFFD
:103CD0004C195D096E097F098C019D01040F151FA8
:103CE000261F371F0F8B188F298F3A8F4E855F85C0
:103CF000688979894C0D5D1D6E1D7F1DC414D50426
:103D0000E604F70408F059C0C1010E94DC018823D1
:103D100009F408CE8091F6039091F7030097E1F043
:103D20001E891033C9F44F89588D698D7A8D4C0DD9
:103D30005D1D6E1D7F1D0A891B892C893D89041715
:103D400015072607370740F4DC01ED91FC9101903F
:103D5000F081E02D688509958091D9039091DA036F
:103D6000A816B90658F48885E091D703F091D803D6
:103D7000EA0DFB1D8083BFEFAB1ABB0AEFEFCE1A33
:103D8000DE0AEE0AFE0AB2CFBF86AE869501253066
:103D9000310509F012CF4FEF5FEF5093F9034093D5
:103DA000F8038091D5039091D603DC01ED91FC914D
:103DB0000488F589E02D0995B5CD8091F6039091A1
:103DC000F703892B61F48091D9039091DA03B0E075
:103DD000A0E084179507A607B70708F4A3CDF4E081
:103DE000AF16B10409F09ECDE091D703F091D8034E
:103DF000838190E08111C2CE0E94D0016093E503DF
:103E00007093E6038093E7039093E8031092E9032D
:103E10001092F9031092F80390E080E090CD833087
:103E2000910509F447C0049709F09DCD0E94D00187
:103E30002091CE023091CF02621B730B8109910950
:103E4000693171058105910508F48DCD15C061E0DA
:103E500082E00E944B0187CD0E94D0012091CE02CA
:103E60003091CF02621B730B810991096436710591
:103E70008105910508F477CD0E94D0017093CF029F
:103E80006093CE020E94270161E0892B09F360E074
:103E9000DFCF0E94D0012091CE023091CF02621B71
:103EA000730B81099109623371058105910508F44D
:103EB0005ACDE2CF0E94D0012091CE023091CF02A4
:103EC000621B730B810991096132710581059105AE
:103ED00008F449CDD1CF8091D7039091D8030C94A9
:103EE0002C218F929F92AF92BF92CF92DF92EF924E
:103EF000FF92CF93DF93EC01688179818A819B8166
:103F0000611571058105910521F464E279ED8BE578
:103F100097E02DE133EF41E050E00E94202049017D
:103F20005A019B01AC01A7EAB1E40E943F206B015A
:103F30007C01ACEEB4EFA50194010E944D20C60EA9
:103F4000D71EE81EF91EF7FE06C081E0C81AD10888
:103F5000E10880E8F80AC882D982EA82FB82C701B8
:103F6000B6019F77DF91CF91FF90EF90DF90CF90D8
:103F7000BF90AF909F908F9008958F929F92AF9235
:103F8000BF92CF92DF92EF92FF9260910801709101
:103F9000090180910A0190910B016115710581055C
:103FA000910521F464E279ED8BE597E02DE133EFA3
:103FB00041E050E00E94202049015A019B01AC01E0
:103FC000A7EAB1E40E943F206B017C01ACEEB4EFA4
:103FD000A50194010E944D20C60ED71EE81EF91EB1
:103FE000F7FE06C081E0C81AD108E10880E8F80AA7
:103FF000C0920801D0920901E0920A01F0920B01EF
:10400000C701B6019F77FF90EF90DF90CF90BF90F0
:10401000AF909F908F90089560930801709309016D
:1040200080930A0190930B010895FC016150704048
:1040300001900110D8F7809590958E0F9F1F0895DD
:10404000052E97FB1EF400940E94372057FD07D0E1
:104050000E94522007FC03D04EF40C943720509558
:104060004095309521953F4F4F4F5F4F0895909564
:104070008095709561957F4F8F4F9F4F08950E9457
:104080007420A59F900DB49F900DA49F800D911D4D
:1040900011240895B7FF0C943F200E943F20821BFB
:1040A000930B0895A1E21A2EAA1BBB1BFD010DC0A4
:1040B000AA1FBB1FEE1FFF1FA217B307E407F507D8
:1040C00020F0A21BB30BE40BF50B661F771F881FB4
:1040D000991F1A9469F760957095809590959B014A
:1040E000AC01BD01CF010895A29FB001B39FC001F3
:1040F000A39F700D811D1124911DB29F700D811D14
:104100001124911D08956927962769277827872705
:1041100078270895EE0FFF1F0590F491E02D099484
:104120000F931F93CF93DF938230910510F482E0B9
:1041300090E0E0911104F091120430E020E0B0E052
:10414000A0E0309799F42115310509F44AC0281BE5
:10415000390B24303105D8F58A819B8161157105B1
:1041600089F1FB0193838283FE0111C0408151815B
:104170000281138148175907E0F04817590799F44D
:10418000109761F012960C93129713961C93329627
:10419000CF01DF91CF911F910F91089500931104EA
:1041A00010931204F4CF2115310551F04217530733
:1041B00038F0A901DB019A01BD01DF01F801C1CF8F
:1041C000EF01F9CF9093120480931104CDCFFE013B
:1041D000E20FF31F81939193225031093983288391
:1041E000D7CF20910F0430911004232B41F420915C
:1041F0000E0130910F013093100420930F04209191
:104200000C0130910D012115310541F42DB73EB758
:104210004091100150911101241B350BE0910F04C6
:10422000F0911004E217F307A0F42E1B3F0B2817A0
:10423000390778F0AC014E5F5F4F2417350748F01F
:104240004E0F5F1F5093100440930F04819391937E
:104250009FCFF0E0E0E09CCFCF93DF930097E9F0B1
:10426000FC01329713821282A0911104B0911204C2
:10427000ED0130E020E01097A1F420813181820F20
:10428000931F20910F04309110042817390709F06B
:1042900061C0F0931004E0930F04DF91CF91089573
:1042A000EA01CE17DF07E8F54A815B819E014115DF
:1042B0005105B1F7E901FB83EA8349915991C40F94
:1042C000D51FEC17FD0761F4808191810296840F60
:1042D000951FE90199838883828193819B838A83D7
:1042E000F0E0E0E012968D919C9113970097B9F55C
:1042F0002D913C911197CD010296820F931F209131
:104300000F04309110042817390739F6309751F50A
:104310001092120410921104B0931004A0930F0491
:10432000BCCFD383C28340815181840F951FC817AE
:10433000D90761F44E5F5F4F88819981480F591FFB
:10434000518340838A819B81938382832115310528
:1043500009F0B0CFF0931204E09311049ECFFD0159
:10436000DC01C0CF13821282D7CFFB01DC0104C075
:104370008D910190801921F441505040C8F7881B5D
:10438000990B0895DC0101C06D9341505040E0F756
:104390000895FB01DC0101900D920020E1F70895E2
:1043A00010E0C2E6D0E004C0FE010E948A202196FF
:0A43B000C336D107C9F7F894FFCF18
:1043BA007FCFD8E1DD1700C0010000000000130420
:1043CA00800001005E00000000044D5154540400B6
:1043DA00000000CC04C90A6105FD00F900BD0C44C7
:1043EA0007B909540850060B05BB10C406FD0D9EFB
:1043FA000C5A054A054605420501020000033139F7
:10440A00322E3136382E312E3100546573742049DC
:10441A00440000000000C702270254021403850268
:10442A0063027702000000005403340361056C0341
:10443A0000000000ED04030BC00AAB0AC50BE70C31
:10444A00530737092E11010D8B06690677057F057B
:10445A00BC1674057205E2046805340DC20D0A0D16
:10446A0064050000000014120D0A003C3C00574984
:10447A005A6E6574004641494C004F4B00496E69BB
:10448A00742E2E2E0045746865726E65742E2E2E5B
:10449A00004641494C3A206E6F20636869702100DA
:1044AA00437269746963616C206572726F722C2041
:1044BA00667265657A696E672073797374656D21B2
:1044CA0000495020414452455353494E472E2E2EFF
:1044DA00004D792049503A002F74657374737562E0
:1044EA002F31004D51545420446973636F6E6E65C9
:1044FA00637465642C20747279696E6720746F2006
:0E450A007265636F6E6E6563742E2E2E000058
:00000001FF
